:020000040000FA
:1000000001280313831685018801FF308600FF3025
:100010008700831205168501880109308500D420E8
:10002000D420D420132806181A2886182920061947
:10003000412059208801850109308500D420D42031
:10004000D4202228071801288718712007198E202C
:10005000AB20083085000A308500D420D420083039
:1000600085000C3085000530A300C8200A308500CB
:10007000D4200C3085000830850009308500D4205C
:100080001A28083085000A308500D420D420083092
:1000900085000C3085000A30A400CC200A30850091
:1000A000D4200C3085000830850009308500D4202C
:1000B0001A28083085000A308500D420D420083062
:1000C00085000C3085000F30A700D0200A30850055
:1000D000D4200C3085000830850009308500D420FC
:1000E0001A28D42001308500113085000814D4204E
:1000F000D420013085000810213085000530A30090
:10010000C820113085000814D4201130850001303A
:100110008500081009308500D4200128D420013042
:100120008500113085000814D420D42001308500CA
:100130000810213085000A30A400CC201130850041
:100140000814D420113085000130850008100930D2
:100150008500D4200128D42001308500113085008D
:100160000814D420D42001308500081021308500E7
:100170000F30A700D020113085000814D420113092
:10018000850001308500081009308500D420012841
:10019000D420A30BC8280800D420A40BCC28080026
:1001A000D420A70BD0280800A00BD7280800A10B4B
:1001B000DC280F30A100D428A20BDC281730A200C5
:0201C000D7283E
:0401C20000340034D1
:00000001FF
